:020000040800F2
:10000000002000209D170008E9170008E9170008E4
:1000100000000000000000000000000000000000E0
:10002000000000000000000000000000E9170008C8
:100030000000000000000000E91700086D03000840
:10004000E9170008E9170008E9170008E917000890
:10005000E9170008E9170008E9170008E917000880
:10006000E9170008E9170008E9170008E917000870
:10007000E9170008E9170008E9170008E917000860
:100080000D170008E917000800000000E917000834
:10009000E9170008E9170008E9170008E917000840
:1000A000E9170008E9170008E91700088D1600088D
:1000B000E917000800000000E91700080000000030
:1000C0005FF808F138B5041C3E4B5B680C22134006
:1000D000042B06D0082B07D0002B1CD13A4B036011
:1000E0001BE0394B036018E0364B5D685B68AD027E
:1000F0002D0F0235D90303D4344B5D4305600CE06A
:10010000304BDB6A0F21194001312F4801F07AFF93
:100110004543256001E02C4B03602A4B5A681206C8
:10012000120F2B498A5CD2B22068051CD5402A1CCC
:1001300065605D686D056D0F495DC9B2CA40A2601A
:100140001B6BD90502D4234BE36008E01D4B5B68B1
:100150005D0402D45308E36001E09308E360194BA7
:100160001B6B590602D41C4B236102E080231B0247
:100170002361144B1B6BDD0602D4134B636100E05B
:100180006061104B1B6B990701D1A26119E00D4B07
:100190001B6B03221340012B01D1A06111E0094B1D
:1001A0001B6B03221340022B03D180231B02A3618C
:1001B00007E0044B1B6B03221340032B01D1024BBE
:1001C000A36138BD0010024000127A0000093D0012
:1001D00000000020809FD50012800000002904D07C
:1001E000044B5A691043586103E0024B5A69824339
:1001F0005A61704700100240002904D0044B9A69EC
:100200001043986103E0024B9A6982439A617047F8
:1002100000100240002904D0044BDA691043D86171
:1002200003E0024BDA698243DA6170470010024052
:10023000002904D0044BDA681043D86003E0024B75
:10024000DA688243DA6070470010024010B5074B4D
:10025000984209D18024A400201C0121FFF7E8FF67
:10026000201C0021FFF7E4FF10BDC0460024014020
:1002700010B5C4688A680B681A43CB681A430B69C7
:100280001A434B691A43044B234013430A79520320
:100290001343C36010BDC04603D2FFFF002904D042
:1002A000826801231343836003E0826802231343BF
:1002B00083607047002905D0C26880231B02134366
:1002C000C36003E0C268024B1340C3607047C0467E
:1002D000FF7FFFFF002905D0C2688023DB011343A5
:1002E000C36003E0C268024B1340C3607047C0465E
:1002F000FFBFFFFF836A1943816242617047C046B6
:10030000826880231B06134383608268D20FD20762
:10031000084B05E08268D20FD207013B002B01D0C9
:10032000002AF7D18368002B01DB006C00E000207D
:100330007047C046FFEF00008268042313438360C8
:100340007047C046006C80B27047C046CB0103D5F1
:100350008068044B184000E000680140481E81415D
:10036000C8B27047FFFFFFFE01607047024B1A687A
:1003700001321A607047C0460005002008B50248E7
:1003800001F0C2FD08BDC04600FC000870B501F0D8
:100390007BFDFFF7F3FF074D0024074EA30099599B
:1003A000281C01F0CDFD04350134182CF6D101F0E4
:1003B0007BFD70BD00FC00089800002010B5054AC8
:1003C0000023054C01CA990008510133182BF9D1BB
:1003D00010BDC04600FC00089800002010B5134B6B
:1003E0001E221A605A650221996059600022DA6063
:1003F0001A615A61062098613224DC6118620C4847
:1004000058629962D9621A63012058639863602028
:10041000D86319645A64642199641421D96405214C
:1004200019659A65DA65FFF7B1FF10BD98000020E5
:100430009182736470B58AB0E1235B020293002459
:1004400003940494059407940C230693802080025F
:100450000121FFF7C3FE8020C0010121FFF7CCFE80
:100460009025ED05281C0921012201F0F9FA281C2C
:100470000A21012201F0F4FA08A9C023DB00089345
:1004800002230B7103234B718C710126CE71281C42
:1004900001F094FA0B4D281C02A901F0F3FA01A80F
:1004A0001B2202704470867001F07CFD281C012123
:1004B00001F04AFB281C0449012201F059FB0AB053
:1004C00070BDC046003801400501050000B583B08D
:1004D00002200121FFF79EFE01A8102303700023D4
:1004E00043700123837001F05DFD03B000BDC04681
:1004F00030B589B005A91B4B4B6000250D800D81DF
:100500004D80194C201C01F075FB201CE021FF31AF
:10051000012201F0B3FB6B461D809D8101255D80AA
:10052000124B0293201C694601F006FC201C00219E
:1005300001F07AFC6B465D800D4B0293201C6946EE
:1005400001F03CFC201C002101F074FC201C18214F
:10055000012201F07FFC201C012101F093FB09B076
:1005600030BDC046FFFF000000040040102700001F
:1005700088130000F0B54F464646C0B48BB08020CB
:1005800080020121FFF72AFE80235B00984600933A
:1005900002236A46137103235371002595710123C9
:1005A0009946D3719024E405201C694601F006FAAF
:1005B000201C0821022201F053FA1F4B18681F4922
:1005C00001F020FD471EBFB2802000010121FFF78E
:1005D00013FE07A90D804D804F600D8100238B72A3
:1005E000174E301C01F006FB02AC602323804A4604
:1005F00062800423A380A5810823E38125824346EA
:100600006382013FB800C0190A2101F0FBFC00041D
:10061000000CA060301C211C01F050FB301C01219B
:1006200001F030FB301C012101F038FB0BB00CBC99
:1006300090469946F0BDC04660000020C409000005
:10064000002C014038B5051C0C1E642C0ED8084B3C
:100650001868084901F0D6FC013880B201386043BF
:10066000642101F0CFFC0004000C686338BDC04673
:1006700060000020C409000030B589B080208000EF
:100680000121FFF7B9FD0623009303236A46137186
:100690000025D5719020C005694601F08FF92F4CD7
:1006A000201CFFF7D3FD02A902950D718D60CD606E
:1006B0000D614D61201CFFF7DBFD201C022106228D
:1006C000FFF718FE201C04210622FFF713FE201C52
:1006D000FFF716FE201C0121FFF7FCFD201C012165
:1006E000FFF7E8FD201C0121FFF7D8FD251C1C4C5D
:1006F000281C211CFFF72AFE0028F9D01748FFF715
:100700001BFE164C201C0421FFF720FE0028F9D008
:10071000124C201CFFF716FE124B1880201C0421DF
:10072000FFF722FE201C0421FFF710FE0028F9D05D
:100730000A4C201CFFF706FE0B4B1880201C0421DE
:10074000FFF712FE201C0821FFF700FE0028F9D059
:1007500002480821FFF708FE09B030BD002401401F
:100760000100000100040020F8020020F0B55F46FF
:1007700056464D464446F0B489B08020C00201215F
:10078000FFF72CFD8023DB019B46181C0121FFF79E
:1007900041FD01AC80235B0199460193012727713C
:1007A00003239A4663710026A671E771384D281C11
:1007B000211C01F003F980239B0101930223984639
:1007C000237153466371A671E771281C211C01F047
:1007D000F5F880231B02019343462371534663714E
:1007E000A671E771281C211C01F0E8F85B46019313
:1007F0004346237153466371A671E771281C211C7F
:1008000001F0DCF8281C0D21002201F029F9281C38
:100810000F21002201F024F9281C0E21002201F0F2
:100820001FF903A90E80822252004A80E022D200E2
:100830008A804346CB800F81802292004A813022F9
:100840008A81CE8107220A82124C201C00F0CEFF42
:10085000201C494601F000F8201C002101F00CF892
:10086000201C012100F0ECFF201C022101F014F8F3
:100870000028F9D0074800F0FBFF80225201044B0A
:100880009A6109B03CBC90469946A246AB46F0BD81
:10089000000400480038004038B5051C0F4C201CEF
:1008A000022100F0F9FF0028F9D00C48291C00F0C3
:1008B000DDFF0A4C201C012100F0EEFF0028F9D0DA
:1008C000064800F0D5FF051C044C201C802100F0D8
:1008D000E3FF0128F9D0281C38BDC046003800408D
:1008E00010B5011C054801F03BF9044C201C802187
:1008F00001F05AF90028F9D010BDC0460038014077
:1009000010B5041C0078002805D00134FFF7E8FF7B
:1009100020780028F9D110BD10B5041C604901F001
:1009200071FB002800D190E03030C0B2FFF7D8FF53
:10093000201C5C4901F066FB0A2101F0A7FB081CA2
:100940003030C0B2FFF7CCFF201C574901F05AFBF2
:100950000A2101F09BFB08E0201C534901F052FBE7
:100960000A2101F093FB00297AD03031C8B2FFF799
:10097000B7FF201C4D4901F045FB0A2101F086FB21
:100980003031C8B2FFF7ACFF201C494901F03AFBF7
:100990000A2101F07BFB08E0201C454901F032FBF5
:1009A0000A2101F073FB002964D03031C8B2FFF78F
:1009B00097FF201C3F4901F025FB0A2101F066FB4F
:1009C0003031C8B2FFF78CFF201CFA21890001F0FA
:1009D00019FB0A2101F05AFB09E0201CFA218900C9
:1009E00001F010FB0A2101F051FB00294CD03031FD
:1009F000C8B2FFF775FF201C642101F003FB0A2138
:100A000001F044FB3031C8B2FFF76AFF201C0A2115
:100A100001F0F8FA0A2101F039FB08E0201C0A2154
:100A200001F0F0FA0A2101F031FB002903D0303146
:100A3000C8B2FFF755FF201C0A2101F027FB081C54
:100A40003030C0B2FFF74CFF28E0201C154901F000
:100A5000D9FA0A2101F01AFB002900D17CE76EE7E0
:100A6000201C124901F0CEFA0A2101F00FFB0029E7
:100A700092D085E7201C0F4901F0C4FA0A2101F049
:100A800005FB0029A9D09BE7201C642101F0BAFADC
:100A90000A2101F0FBFA0029C0D0B3E710BDC0461F
:100AA00000CA9A3B00E1F5058096980040420F008D
:100AB000A08601001027000010B5A848FFF720FF0E
:100AC000A74C2068FFF71CFF6068FFF719FFA548D7
:100AD000FFF716FFA448FFF713FFA448FFF710FF26
:100AE000A348FFF70DFFA34C2068FFF715FFA248AE
:100AF000FFF706FF606DFFF70FFFA048FFF700FF4D
:100B0000A26892009E4BD058FFF706FF9D48FFF762
:100B1000F7FEE069FFF700FF9B48FFF7F1FE63680F
:100B2000002B03D19948FFF7EBFE12E0914B5B6875
:100B3000012B03D19648FFF7E3FE0AE08D4B5B687B
:100B4000022B03D19348FFF7DBFE02E09248FFF748
:100B5000D7FE9248FFF7D4FE864B5B6C002B03D187
:100B60008F48FFF7CDFE12E0824B5B6C012B03D167
:100B70008C48FFF7C5FE0AE07E4B5B6C022B03D16D
:100B80008948FFF7BDFE02E08848FFF7B9FE8848B4
:100B9000FFF7B6FE774C236C9B00714AD318986818
:100BA000FFF7AEFE8348FFF7ABFE206D0A2101F090
:100BB00029FAFFF7B1FE2E20FFF792FE206D0A21E1
:100BC00001F064FA081CFFF7A7FE7B48FFF798FEC8
:100BD000A06CFFF7A1FE7948FFF792FEE06CFFF7EB
:100BE0009BFE7748FFF78CFE2369002B03D17548E5
:100BF000FFF786FE02E07448FFF782FE7348FFF7B6
:100C00007FFE5C4B5B69002B03D16E48FFF778FEDB
:100C100002E06D48FFF774FE6D48FFF771FE554B1B
:100C20001B6B002B03D16748FFF76AFE02E06648A2
:100C3000FFF766FE6748FFF763FE4E4BDB6B1A0655
:100C400003D56148FFF75CFE02E05E48FFF758FEFF
:100C50006148FFF755FE474BDB6B5A0603D55A48F0
:100C6000FFF74EFE02E05748FFF74AFE5B48FFF7EA
:100C700047FE404BDB6B9A0603D55348FFF740FE17
:100C800002E05048FFF73CFE5548FFF739FE394B6C
:100C9000DB6BDA0603D54C48FFF732FE02E0494829
:100CA000FFF72EFE4F48FFF72BFE324B5B6BDA0748
:100CB00003D54548FFF724FE02E04248FFF720FE37
:100CC0004948FFF71DFE2B4B5B6B9A0703D53E4847
:100CD000FFF716FE02E03B48FFF712FE4348FFF71E
:100CE0000FFE244B5B6B5A0703D53748FFF708FE0E
:100CF00002E03448FFF704FE3D48FFF701FE1D4BBC
:100D00005B6B1A0703D53048FFF7FAFD02E02D4868
:100D1000FFF7F6FD3748FFF7F3FD164CA069FFF724
:100D2000FBFD3548FFF7ECFD206AFFF7F5FD334882
:100D3000FFF7E6FDA06AFFF7EFFD3148FFF7E0FDA2
:100D4000E06AFFF7E9FD2F48FFF7DAFDA06BFFF738
:100D5000E3FD2D48FFF7D4FD10BDC0463822000842
:100D600010000020802400085C220008782200087F
:100D7000AC22000898000020C8220008E8220008E1
:100D800064210008082300082823000848230008DD
:100D900058230008642300087423000888230008EF
:100DA000A4230008B0230008BC230008CC230008BB
:100DB000DC230008F8230008182400083824000861
:100DC000582400087824000884240008902400088F
:100DD000AC240008C8240008E4240008002500080A
:100DE0001C25000838250008542500087025000837
:100DF0008C250008A8250008C4250008E425000863
:100E000004260008242600084426000808B5B94B2B
:100E10001B78DBB2042B09D90022B64B1A700023D1
:100E2000B549CA5401330A2BFBD1F9E2B14B1B7807
:100E3000012B21D1B04B1B78DBB23F2B18D002D84D
:100E40002A2B05D0ECE2712B08D0722B0CD0E7E2F4
:100E5000FFF7C4FA0022A74B1A70E1E2FFF72CFE5D
:100E60000022A44B1A70DBE20022A24B1A70D7E2D8
:100E70000022A04B1A70D3E29E4B1B78022B00D0AD
:100E800076E19D4B1B78732B14D19B4B5B78DBB2C7
:100E90002F2B0FD9984B5B78DBB2332B0AD8964BAC
:100EA0005A78303A954B9A60FFF770FA0022914BCE
:100EB0001A70B5E2904B1B78612B14D18E4B5B7886
:100EC000DBB22F2B0FD98C4B5B78DBB2312B0AD8DE
:100ED000894B5A78303A894B1A61FFF757FA00224A
:100EE000844B1A709CE2844B1B78662B14D1824B86
:100EF0005B78DBB22F2B0FD97F4B5B78DBB2312BCA
:100F00000AD87D4B5A78303A7C4B5A61FFF73EFA4B
:100F10000022784B1A7083E2774B1B786F2B14D129
:100F2000754B5B78DBB22F2B0FD9734B5B78DBB241
:100F3000312B0AD8704B5A78303A704B1A63FFF74E
:100F400025FA00226B4B1A706AE26B4B1B78622BFE
:100F500014D1694B5B78DBB22F2B0FD9664B5B78D2
:100F6000DBB2322B0AD8644B5A78303A634B5A645E
:100F7000FFF70CFA00225F4B1A7051E25E4B1B78B0
:100F80006C2B25D15C4B5B78DBB22F2B04D95A4BF1
:100F90005B78DBB2392B03D9574B5B78612B17D1C8
:100FA000554B5B78DBB2392B05D8534B5A78303A26
:100FB000524B9A6106E0504B5B78612B02D10A22BA
:100FC0004E4B9A61FFF7E2F900224A4B1A7027E272
:100FD000494B1B78682B25D1474B5B78DBB22F2B15
:100FE00004D9454B5B78DBB2392B03D9424B5B7894
:100FF000612B17D1404B5B78DBB2392B05D83E4BC8
:101000005A78303A3D4B1A6206E03B4B5B78612BD5
:1010100002D10A22394B1A62FFF7B8F90022354B88
:101020001A70FDE1344B1B78632B14D1324B5B7883
:10103000DBB2312B0FD9304B5B78DBB2382B0AD8BF
:101040002D4B5A78303A2D4B9A62FFF79FF90022C8
:10105000284B1A70E4E1284B1B78742B31D1264BB6
:101060005B78DBB22F2B04D9234B5B78DBB2392BB7
:1010700007D9214B5B78612B03D01F4B5B78622B28
:101080001FD11D4B5B78DBB2392B05D81A4B5A7830
:10109000303A1A4BDA620EE0174B5B78612B03D1C2
:1010A0000A22164BDA6206E0134B5B78622B02D100
:1010B0000B22124BDA62FFF769F900220D4B1A700E
:1010C000AEE10D4B1B78752B1AD10B4B5B78DBB265
:1010D000302B15D9084B5B78DBB2382B10D8064B78
:1010E0005A78303A054B9A63FFF750F90022014BCA
:1010F0001A7095E164000020840000209800002010
:10110000A54B1B786E2B00D08AE1A34B5B78DBB23A
:101110002F2B04D9A04B5B78DBB2392B08D99E4B1F
:101120005B78612B04D09C4B5B78622B00D077E11D
:10113000994B5B78DBB2392B05D8974B5A78303A0C
:10114000964B1A640EE0944B5B78612B03D10A2214
:10115000924B1A6406E0904B5B78622B02D10B2213
:101160008E4B1A64FFF712F900228D4B1A7057E16B
:101170008B4B1B78032B00D052E1874B1B78782BCD
:101180002FD1854B5B78DBB2302B2AD9824B5B7831
:10119000DBB2352B25D8804B9B78DBB22F2B20D9A7
:1011A0007D4B9B78DBB2392B1BD87B4A53789278E6
:1011B000303B9900CB185B00303A9B18322B0CDC8B
:1011C000754A53789278303B9900CB185B00303ADF
:1011D0009A18724BDA61FFF7D9F80022704B1A7037
:1011E0001EE16D4B1B78702B68D16B4B5B78DBB2CB
:1011F0002F2B63D9684B5B78DBB2372B5ED8664BFD
:101200009B78DBB22F2B59D9634B9B78DBB2312B08
:1012100054D8614B5B78372B0FD15F4B9B78302BC9
:1012200005D15E4BDA6B80218A43DA6340E05B4B89
:10123000D96B80220A43DA633AE0574B5B78362B4E
:101240000FD1554B9B78302B05D1544BDA6B402195
:101250008A43DA632CE0514BDA6B40210A43DA63AC
:1012600026E04D4B5B78352B0FD14B4B9B78302BC9
:1012700005D14A4BDA6B20218A43DA6318E0474BE9
:10128000DA6B20210A43DA6312E0434B5B78342B9C
:101290000ED1414B9B78302B05D1404BDA6B10219E
:1012A0008A43DA6304E03D4BDA6B10210A43DA63C8
:1012B000FFF76CF800223A4B1A70B1E0364B1B78FE
:1012C0006D2B6FD1344B5B78DBB2302B6AD9324B4C
:1012D0005B78DBB2342B65D82F4B9B78DBB22F2B9E
:1012E00060D92D4B9B78DBB2312B5BD82A4B5B78D6
:1012F000312B0FD1284B9B78302B05D1274B5A6BC4
:1013000001218A435A6340E0244B596B01220A436E
:101310005A633AE0204B5B78322B0FD11E4B9B78FF
:10132000302B05D11D4B5A6B02218A435A632CE0A6
:101330001A4B5A6B02210A435A6326E0164B5B781C
:10134000332B0FD1144B9B78302B05D1134B5A6B99
:1013500004218A435A6318E0104B5A6B04210A4354
:101360005A6312E00C4B5B78342B0ED10A4B9B78FE
:10137000302B05D1094B5A6B08218A435A6304E08C
:10138000064B5A6B08210A435A63FEF7FFFF0022FF
:10139000034B1A7044E0C0468400002098000020EF
:1013A000640000201F4B1B78652B39D11D4B5B78E7
:1013B000DBB22F2B34D91B4B5B78DBB2332B2FD80E
:1013C000184B9B78DBB22F2B2AD9164B9B78DBB2BC
:1013D000392B25D8134A53789278303B9900CB1893
:1013E0005B00303A9B181E2B17DC0E4A537892781C
:1013F000303B9900CB185B00303A9B18012B0CDD79
:10140000084A53789278303B9900CB185B00303A09
:101410009A18054B1A65FEF7B9FF0022034B1A70A4
:1014200008BDC04684000020980000206400002011
:10143000F0B55F4656464D464446F0B483B0FEF7DD
:10144000BDFFFFF743F8FFF753F8802000030121A9
:10145000FEF7C4FE7B49E0239B000B6001230B7168
:1014600000248C7103234B71CC71774800F0A6FAED
:10147000764B1868FA21890000F0C4FD0202120AB6
:10148000013A734B5A60734A106A0002000AC02185
:101490000906014311629C6007221A606E4B1C60B2
:1014A000FEF7C8FFFFF766F8FFF7E6F8FFF75EF90B
:1014B0006A4B5A6A6A4B9A4206D0FEF78FFF694818
:1014C0001430FFF71DFA03E066482C30FFF718FAD6
:1014D000FFF7F2FA0A229146002398469A46624D97
:1014E000AB46002200925F4B4433019347466B6842
:1014F000002BFCD0009A5B465A605C4C802676013B
:1015000026852A20FFF7C8F9A661FFF7E9F901222D
:1015100092445346312B67DD01377F23F90FDA17E9
:10152000BB4251414B421F405148FEF705FF504C12
:10153000201C0421FEF70AFF0028F9D04C4C201C87
:10154000FEF700FF7B004B4A9852201C0421FEF757
:101550000BFF201C0421FEF7F9FE0028F9D0444CB3
:10156000201CFEF7EFFE7B00434A9852201C04210A
:10157000FEF7FAFE201C0821FEF7E8FE0028F9D04D
:101580003B480821FEF7F0FE381CFFF7C5F90D2097
:10159000FFF7A6F90A20FFF7A3F90198FFF7B0F9C2
:1015A0007E00344BF05E354C6043354900F078FDE9
:1015B000FFF7B2F92B485430FFF7A2F92E4BF05E3B
:1015C00060432F4900F06CFDFFF7A6F96D20FFF78F
:1015D00087F95620FFF784F90D20FFF781F90A20DB
:1015E000FFF77EF900239A46174B998A80224A40DA
:1015F0009A82052291444B46632B01DD0A229146D3
:101600004B4699B21F48FFF71DF8174B1B78002B6C
:1016100000D16CE7144B1B78002B0DD000241A4A24
:101620009046114E4346185DC0B2FFF759F9013498
:101630003378DBB2A342F5DCFFF7E8FB0A4B00226C
:101640001A7054E7F80300200008004860000020EA
:1016500010E000E000ED00E0000500209800002010
:101660009182736464210008640000200004004833
:101670000024014000040020F8020020B80B000004
:10168000FF0F0000002C01408400002038B51948ED
:10169000194900F08FFA00280FD0184CA3685A1C83
:1016A000A260174A4432D15C124800F059FAA3688C
:1016B0000B2B02D90022114B9A600E48114900F001
:1016C00079FA002814D00D4C2578EDB26B1CDBB2F2
:1016D0002370084800F048FAC0B20B4B58552378E5
:1016E000DBB2132B04D9054B1A78013AD2B21A7027
:1016F00038BDC046003801400701070064000020E3
:1017000064210008050105008400002038B51E484A
:10171000082100F0A9FB00281AD01B4C201C08212E
:1017200000F0AEFB194D6B6801336B60184B998A62
:10173000802292004A409A82201C00F087FBA881F8
:101740000104090C134BC918201C00F069FB19E0B7
:101750000D4C201C102100F093FB0C4D2B69013324
:101760002B610B4B998A802252004A409A82201C9E
:1017700000F06EFBA8810104090C074BC918201C5E
:1017800000F050FB38BDC04600040040640000205B
:101790000008004810270000881300000C48854608
:1017A000002103E00B4B5B58435004310A480B4BBC
:1017B00042189A42F6D30A4A02E000231360043228
:1017C000084B9A42F9D300F0C7F8FFF731FEFEE765
:1017D00000200020002700080000002064000020F6
:1017E0006400002004050020FEE7000010B5038817
:1017F000C12292011A40CC890B882343CC88234311
:101800000C8923434C8923438C892343134303804E
:101810008288094B13408A88134383800B8A038292
:101820000388042293434A8813430380828B034B2B
:101830001340838310BDC046FFF0FFFFFFF7FFFF9B
:10184000002904D0028840231343038003E0038867
:1018500040229343038070478288034B1340838068
:101860008388194381807047FFEFFFFF0173704742
:10187000007BC0B27047C046002905D00288802393
:101880009B011343038003E00288024B1340038053
:101890007047C046FFDFFFFF00890840431E9841A4
:1018A000C0B2704782B0002301930093274B1968A0
:1018B000802252020A431A60191C80229202A02040
:1018C000C0010B6813400093019B01330193009BFF
:1018D000002B02D1019B8342F3D11C4B1B689A035E
:1018E00002D50123009301E000230093009B012B0C
:1018F0002AD11122164B1A60144B5A685A605A6842
:101900005A605968134A0A405A605968882252033B
:101910000A435A601968802252040A431A60191C4B
:10192000802292040B681342FCD0084B5A680321B2
:101930008A435A60596802220A435A60191C0C22D1
:101940004B681340082BFBD102B0704700100240D7
:1019500000200240FFFFC0FF08B5124B19680122AA
:1019600011431960586810490140596018680F49BF
:101970000140196018680E490140196058680D4906
:1019800001405960D96A0F208143D962186B0A4916
:1019900001401963596B9143596300229A60FFF724
:1019A00081FF08BD001002400CB8FFF8FFFFF6FEF3
:1019B000FFFFFBFFFFFFC0FFACFEFFFFF0B54F4690
:1019C0004646C0B40022002301260327341C9C4055
:1019D0000D682540A5423BD10C79013C012C1DD856
:1019E00084683D1C9540AC43846085684C79944084
:1019F0002C4384608488A0461C04240CA146351C1A
:101A0000A5404446AC4384808488A0468D792C1C34
:101A10004D46AC4045462C43A4B2848004683D1C2E
:101A20009540AC43046005680C7994402C430460F5
:101A3000C468A0461D04ED0B3C1CAC40A4464446C3
:101A40006546AC43C460C568CC7994402C43C460FF
:101A500001330232102BB9D10CBC90469946F0BD2F
:101A600010B507230B409B00C90889004018016A84
:101A70000F249C40A1430162016A9A40131C0B434E
:101A8000036210BDF0B5474680B488B0041C0D1C3D
:101A900003680122934303604268264B1340896820
:101AA0000B4343600268244B1A40EB6869680B43A0
:101AB00029690B43134303608268204B13406A6912
:101AC0001343836001A8FEF7FDFA1D4B9C4201D130
:101AD000079F00E0039F236819040CD57F00B846D8
:101AE0002F684046391C00F08DFA061C4046391C10
:101AF00000F0CCFA0AE02A689046381C111C00F06D
:101B000081FA061C381C414600F0C0FA2A685208C7
:101B1000002391425B41F6182368190404D533076A
:101B20005B0F084A16401E43B6B2A68108B004BC3B
:101B30009046F0BDFFCFFFFFF3E9FFFFFFFCFFFF83
:101B400000380140F0FF0000002904D002680123A2
:101B50001343036003E0036801229343036070476B
:101B6000C905C90D01857047808CC005C00D70473F
:101B700030B5031C8CB2240AFF25294001258D4075
:101B8000291C022C01D1031D03E0032C01D1031CED
:101B90000833002A03D01A681143196002E01A685A
:101BA0008A431A6030BDC046C0690840431E984150
:101BB000C0B2704710B58BB21B0AFF220A40012445
:101BC0009440221C012B02D10468224006E0022B23
:101BD00002D14468224001E084682240C3690020A9
:101BE000002A06D0090C012088400340581E83417A
:101BF000D8B210BD10B503889BB2194A904206D0E6
:101C00008022D205904202D0164A904203D170221F
:101C100093434A881343144A904219D00A89134CBB
:101C20002340134303804B68C3620B8803850C4B2E
:101C3000984208D00E4B984205D00E4B984202D0E5
:101C40000D4B984201D18B7A03860123838206E0F3
:101C5000054A13804B68D3620B881385F5E710BDE6
:101C6000002C01400004004000100040FFFCFFFF7A
:101C7000004001400044014000480140018582824B
:101C80007047C046002904D0028801231343038013
:101C900003E003880122934303807047002906D0A4
:101CA0004423C15A802212020A43C25204E0442350
:101CB000C25A5204520CC2527047C04670B5038CCF
:101CC000012293430384058C828892B2048B732390
:101CD0009C430B881C4302239D434E888B893343CE
:101CE0002B43104DA84208D00F4DA84205D00F4DF0
:101CF000A84202D00E4DA8420DD10825AB43CD8994
:101D00002B430425AB438D882B430A4D2A404E8A32
:101D10000D8A35432A43828004838A6842630384A0
:101D200070BDC046002C014000400140004401400D
:101D300000480140FFFCFFFF30B5028C194B1340F7
:101D40000384058C828892B2848B73239C430B8816
:101D50001C43154B2B408D892D022B439BB24D8884
:101D60002D022B439BB2114DA84214D1104D2B4094
:101D7000CD892D022B430F4D2B408D882D022B43F7
:101D80009BB20D4D2A400D8A2D012A4392B24D8AF5
:101D90002D012A4392B2828084838A68C2630384BD
:101DA00030BDC046FFFEFFFFFFFDFFFF002C0140DE
:101DB000FFF7FFFFFFFB0000FFCFFFFF30B5028CF6
:101DC000124B13400384058C83889BB2848B104A8A
:101DD00014400A8812021443A4B20E4A2A408D8984
:101DE0002D032A4392B24D882D032A4392B20A4D05
:101DF000A84205D1094D2B400D8AAD012B439BB262
:101E0000838084838B680364028430BDFFEFFFFF0F
:101E1000FF8CFFFFFFDFFFFF002C0140FFBFFFFF34
:101E2000C163704701647047838B08229343194351
:101E300081837047828B044B1A400B02111C19439B
:101E400089B281837047C046FFF7FFFFC06B7047C0
:101E5000006C7047002A03D083891943818102E016
:101E600083898B4383817047038A808982B20020F3
:101E70000B4203D011404A1E9141C8B27047C04680
:101E8000C94389B201827047044B1B691A0604D505
:101E9000024B034A5A60034A5A60704700200240CE
:101EA00023016745AB89EFCD024B196980220A43B4
:101EB0001A61704700200240084BDB680120DA07F6
:101EC0000BD4064BDB680220DA0606D4034BDB6832
:101ED000042018404342584103307047002002401C
:101EE00010B5041CFFF7E8FF012809D1002C09D028
:101EF000FFF7E2FF013C012802D1002CF8D101E0FC
:101F0000002C00D1052010BD70B5051CB0200003C9
:101F1000FFF7E6FF042810D1084C2369022633435B
:101F2000236165612269402313432361B0200003CC
:101F3000FFF7D6FF2369B343236170BD0020024041
:101F400030B583B0051C0C1C00230193B0200003A6
:101F5000FFF7C6FF042820D1114B196901220A435B
:101F60001A61A3B22B80B0200003FFF7B9FF042849
:101F70000ED102350195019B240C1C80B02000037A
:101F8000FFF7AEFF064B1A6901218A431A6104E08C
:101F9000034B1A6901218A431A6103B030BDC04660
:101FA0000020024070B58378002B1FD00578AA0866
:101FB0009200134BD218C0239B00D65803210D402A
:101FC000E900FF24251C8D40AE43351C4678B60140
:101FD00034408C40291C2143D15003781F221A40E1
:101FE000012393401A1C064B1A6008E003781F2156
:101FF000194001238B40191C8023014AD15070BD28
:1020000000E100E0002934D00123002210B488420E
:102010002CD301242407A14204D2814202D2090117
:102020001B01F8E7E400A14204D2814202D2490038
:102030005B00F8E7884201D3401A1A434C08A042DB
:1020400002D3001B5C0822438C08A04202D3001B71
:102050009C082243CC08A04202D3001BDC08224388
:10206000002803D01B0901D00909E3E7101C10BCAC
:102070007047002801D00020C04307B4024802A1E5
:102080004018029003BDC046D90000000029F0D0DE
:1020900003B5FFF7B9FF0EBC4243891A1847C04683
:1020A000002941D010B4041C4C40A4460123002256
:1020B000002900D54942002800D5404288422CD34F
:1020C00001242407A14204D2814202D209011B014A
:1020D000F8E7E400A14204D2814202D249005B0049
:1020E000F8E7884201D3401A1A434C08A04202D3B1
:1020F000001B5C0822438C08A04202D3001B9C08F2
:102100002243CC08A04202D3001BDC082243002853
:1021100003D01B0901D00909E3E7101C6446002C19
:1021200000D5404210BC7047002806D003DB0020D9
:10213000C043400801E08020000607B4024802A125
:102140004018029003BDC046190000000029EBD0E2
:1021500003B5FFF7A7FF0EBC4243891A1847C046D4
:102160007047C046200000004000000080000000D2
:102170000001000000020000557365722050616785
:1021800065205265577269746564210D0A0000006C
:102190005573657220506167652052656D61696E87
:1021A0006564210D0A000000414443312076616CD2
:1021B00075653A20000000006D560D0A4144433217
:1021C0002076616C75653A20000000000A0000006E
:1021D00019000000320000006400000096000000BA
:1021E0002C01000058020000DC050000B80B0000C4
:1021F0007017000028230000504600000500000072
:1022000006000000070000000800000009000000B0
:102210002000000010000000080000000400000082
:102220000200000003000000060000000C00000097
:1022300018000000300000000D0A495333303020F0
:102240004F7574646F6F72204F63637570616E6356
:10225000792053656E736F7220000000546865200A
:1022600043757272656E74732053657474696E671A
:10227000733A0D0A000000003D3D3D3D3D3D3D3DB2
:102280003D3D3D3D3D3D3D3D3D3D3D3D3D3D3D3D7E
:102290003D3D3D3D3D3D3D3D3D3D3D3D3D3D3D3D6E
:1022A0003D3D3D3D3D3D0D0A0000000053656E7310
:1022B00069746976697479202867312D2D293A204F
:1022C00020202020202020000D0A53656E736974A1
:1022D000697669747932202867322D2D293A2020B9
:1022E00020202020200000000D0A4646542053697B
:1022F0007A652028732D293A2020202020202020B4
:1023000020202020200000000D0A4D617820464644
:102310005420626520436865636B65642028782DCE
:102320002D293A20200000000D0A4469726563746B
:10233000696F6E2028726573293A202020202020A2
:102340002020202020000000417070726F616368BF
:10235000696E670D0A0000007265636564696E67E7
:102360000D0A000042692D646972656374696F6EBD
:102370000D0A0000556E6B6E6F776E206469726592
:102380006374696F6E0D0A0054617267657420533F
:10239000656C656374696F6E2028622D293A202070
:1023A000202020004E6561726573740D0A000000E4
:1023B000466173746573740D0A000000496E74659C
:1023C0006772617465640D0A00000000556E7365E4
:1023D0006C65637465640D0A00000000486F6C64EE
:1023E000206F6E2054696D6520286E2D293A2020BB
:1023F00020202020202020000D0A44696D6D696E88
:10240000672054696D65207365632028652D2D292B
:102410003A202020200000000D0A48696768204CFF
:10242000756D696E616E63652025202864682D2DA9
:10243000293A2020200000000D0A4C6F77204C75AF
:102440006D696E616E636520252028646C2D2D29D1
:102450003A202020200000000D0A4144432044611E
:102460007461204F75747075742028612D293A208D
:10247000202020202000000044697361626C6564A4
:102480000D0A0000456E61626C65640D0A00000073
:102490004646542044617461204F757470757420F1
:1024A00028662D293A20202020202000464654204E
:1024B0004F626A656374204F757470757420286F5D
:1024C0002D293A202020200044656275672D476140
:1024D00070204F7574707574202870372D293A203C
:1024E0002020200044656275672D547261636B2063
:1024F0004F7574707574202870362D293A2020008D
:1025000044656275672D4D6F742E204F757470751C
:1025100074202870352D293A2020200044656275EA
:10252000672D47726F7570204F7574707574202811
:1025300070342D293A2020004D6F74696F6E20533E
:10254000656E736F723120286D312D293A2020205D
:10255000202020004D6F74696F6E2053656E736F7D
:10256000723220286D322D293A2020202020200090
:102570004D6F74696F6E2053656E736F72332028D0
:102580006D332D293A202020202020004D6F7469C2
:102590006F6E2053656E736F723420286D342D2951
:1025A0003A20202020202000464654204C6F7720DF
:1025B00043757420286C2D293A20202020202020CB
:1025C000202020000D0A46465420486967682043B1
:1025D00075742028682D293A2020202020202020D2
:1025E000200000000D0A4D6F74696F6E20436F6EFE
:1025F0006669726D6174696F6E2028632D293A20B7
:10260000200000000D0A537065656420546F6C65EE
:1026100072616E63652028742D293A2020202020C5
:10262000200000000D0A4D617820536C6F74204724
:10263000617020416C6C6F772028752D293A20201D
:10264000200000000D0A456E64206F6620736574DB
:1026500074696E67730D0A0D0A00000032207365FD
:10266000636F6E647320000035207365636F6E6462
:10267000732000003130207365636F6E64200000AA
:102680003230207365636F6E6473000033302073E3
:1026900065636F6E6473000031206D696E757465DB
:1026A0002020000032206D696E7574657320000073
:1026B00035206D696E757465732000003130206DB2
:1026C000696E7574657300003230206D696E7574C3
:1026D000657300003330206D696E7574657300009A
:1026E0003120686F75722020202000005231353073
:1026F000313130303100000056302E3630200000AD
:102700000000000001020304010203040607080997
:10271000F8260008EC2600085C2600086826000859
:1027200074260008802600088C26000898260008D9
:10273000A4260008B0260008BC260008C826000809
:10274000D4260008E026000801040000CDAB1032BA
:102750000000000000000000010203040607080951
:04276000006CDC022B
:0400000508000000EF
:00000001FF
